:100000000020001015010000D5000000D9000000FC
:1000100000000000000000000000000000000000E0
:10002000000000000000000000000000DD000000F3
:100030000000000000000000E10000006501000079
:10004000E9000000E9000000E9000000E90000000C
:10005000E9000000E9000000E9000000E9000000FC
:10006000E9000000E9000000E9000000E9000000EC
:10007000E9000000E9000000E9000000E9000000DC
:10008000E9000000E900000075010000E90000003F
:10009000E9000000E900000000000000000000008E
:1000A000E9000000E9000000E90000000000000095
:1000B000E9000000E9000000E9000000E90000009C
:1000C000B807000000000010000000000000001051
:1000D00004000000FEE7C046FEE7C046FEE7C0465B
:1000E000FEE7C046FEE7C046FEE7C04610B5002A60
:1000F00005D000231C585C5004339A42FAD810BD36
:10010000002905D0002300221A5004339942FBD85D
:100110007047C04670B5104B104A9A420BD214007B
:100120001D00206861680C34231F1A68FFF7DEFF8A
:10013000AC42F6D300E0094C094B9C4207D21D00AB
:1001400061682068FFF7DCFF0834AC42F8D300F0A8
:1001500079F800F01FF8FEE7CC000000C0000000B6
:10016000D4000000002180239B00A022D205D150A2
:100170007047C046064B1B689B0708D50222044BFC
:100180001A60802180239B00A022D205D1507047A5
:100190000040014070B500F085F8A024E40520007F
:1001A00000F022F980221202A15880230B43A350B1
:1001B0001E4B18680A2100F04FFA1D4B984210D8C8
:1001C00003021B0A013B1B4A53601B490B6A1B02BB
:1001D0001B0AC020000603430B6200239360073311
:1001E0001360164C200000F0D5F900F0F3F805007C
:1001F000200000F013FA62690823134363610B21A6
:10020000280000F029FAE06162691023134363615A
:100210006268012313436360094B8022D202C0212C
:1002200049005A501A6030BFFDE7C0460000001078
:10023000FFFFFF0010E000E000ED00E000400140A3
:1002400000E100E010B5022000F094F9012000F078
:1002500091F9002000F02EF8802000F07DF9232293
:100260000E4B9A60802000F085F90C490122CB6882
:100270001A42FCD0094C0123A36709490B690322E8
:100280009343013A13430B61032000F027F88022C7
:10029000A358802149020B43A35010BD00800440A5
:1002A00000C0034010B500F095F8014B186010BD78
:1002B00000000010034B186400225A6401325A6493
:1002C0007047C046008004400300002901D002238B
:1002D0000343014A1362704700800440034B1867D0
:1002E00000225A6701325A677047C04600800440B6
:1002F000054BD0229850043200209850013098507D
:10030000043299507047C04600800440054BE022FB
:10031000985004320020985001309850043299507F
:100320007047C0460080044010B5074B5B6ADA0591
:10033000120F92001F21194001314900034BD05880
:1003400000F08AF910BDC046008004407807000024
:10035000064B1B6C0322134005D00020012B03D158
:10036000034B186800E003487047C0460080044013
:1003700074070000001BB70010B5044B9C68FFF722
:10038000E7FF1F231C400134604310BD0080044080
:1003900010B50E4B1B6F03221340012B0AD002DC59
:1003A000002B05D00FE0022B07D0032B08D00AE06A
:1003B000074809E0FFF7CCFF06E0FFF7B5FF03E0D1
:1003C000FFF7DAFF00E0002010BDC04600800440C7
:1003D000001BB70010B5FFF7DBFF024B996F00F071
:1003E0003BF910BD00800440034980228858402317
:1003F00003438B507047C04600800440034980226D
:100400008B58402083438B507047C0460080044087
:1004100010B5002B09D0090440188024240201598A
:10042000012393400B43035108E009044018802442
:1004300024020359012191408B43035110BDC04652
:10044000002B07D00904401880231B02C1580A431F
:10045000C25006E009044018802109024358934322
:100460004350704710B5002B09D009044018802470
:1004700024020159012393400B43035108E009046E
:100480004018802424020359012191408B430351D9
:1004900010BDC046002B07D0090440188021090276
:1004A00043581A43425006E00904401880210902CB
:1004B0004358934343507047F0B5012494402200C1
:1004C0009C0712D50C040419134FE559D643354047
:1004D000E5515D0704D5114EA5591543A5510AE014
:1004E0000E4D67593E40665105E00C0404190A4E52
:1004F000A5591543A551DB0706D50904411808483D
:100500000B581A430A5005E00904411804480B58D7
:1005100093430B50F0BDC0460480000008800000EB
:100520000C800000FF231840034B18438C239B00D2
:10053000024AD0507047C046B718000000800440FF
:10054000FF231840ED231B0218438D239B00014A13
:10055000D050704700800440054A8E239B00D1583C
:100560000843FF210840ED2109020843D05070479D
:100570000080044010B506498E2292008B58FF245B
:10058000234020408343ED20000203438B5010BDE5
:100590000080044010B50C4B98420AD00B4B984297
:1005A00009D00B4B9C466044434243410920C01A8A
:1005B00002E00A2000E00720064C80216258012357
:1005C00083401343635010BD0080014000C00040D1
:1005D0000000FFBF0080044010B50C4B98420AD0C9
:1005E0000B4B984209D00B4B9C466044434243411D
:1005F0000920C01A02E00A2000E00720064C8021F2
:100600006358012282409343635010BD0080014033
:1006100000C000400000FFBF00800440426800238B
:10062000436001338360013343608368002BFCD156
:1006300042607047F0B59E1C7600C46B01259D405A
:100640002F000325B5403D43AC43C4639940B240FD
:100650000A431443C463F0BD002243088B4274D3A1
:1006600003098B425FD3030A8B4244D3030B8B42B3
:1006700028D3030C8B420DD3FF22090212BA030CBC
:100680008B4202D31212090265D0030B8B4219D39D
:1006900000E0090AC30B8B4201D3CB03C01A5241BD
:1006A000830B8B4201D38B03C01A5241430B8B4205
:1006B00001D34B03C01A5241030B8B4201D30B03EE
:1006C000C01A5241C30A8B4201D3CB02C01A524115
:1006D000830A8B4201D38B02C01A5241430A8B42D8
:1006E00001D34B02C01A5241030A8B4201D30B02C1
:1006F000C01A5241CDD2C3098B4201D3CB01C01ADB
:10070000524183098B4201D38B01C01A52414309E4
:100710008B4201D34B01C01A524103098B4201D3D2
:100720000B01C01A5241C3088B4201D3CB00C01A3F
:10073000524183088B4201D38B00C01A52414308B7
:100740008B4201D34B00C01A5241411A00D20146DC
:10075000524110467047FFE701B5002000F006F84F
:1007600002BDC0460029F7D076E770477047C04603
:1007700000000000001BB70000000000C0270900B7
:1007800090051000C05C1500F0B31A00200B20008B
:10079000009F2400E0322900C0C62D005097310090
:1007A000E06735007038390000093D004016400010
:0807B00080234300C030460025
:0400000300000115E3
:00000001FF
